S02B0000646973742F52656C656173652F70726F64756374696F6E2F5365637572655F70726F6A6563742E5848
S214000000C0060020710200006D0200006D020000B4
S21400001000000000000000000000000000000000DB
S2140000200000000000000000000000006D0200005C
S21400003000000000000000006D0200006D020000DD
S2140000406D0200006D0200006D0200006D020000EF
S2140000506D0200006D0200006D0200006D020000DF
S2140000606D0200006D0200006D0200006D020000CF
S2140000706D0200006D0200006D0200006D020000BF
S2140000806D0200006D0200006D0200006D020000AF
S2140000906D0200006D0200006D0200006D0200009F
S2140000A06D0200006D0200006D0200006D0200008F
S2140000B06D0200006D0200006D0200006D0200007F
S2140000C06D0200006D0200006D0200006D0200006F
S2140000D06D0200006D0200006D0200006D0200005F
S2140000E06D0200006D0200006D0200006D0200004F
S2140000F06D020000C3B201200A4A9B009B18DA6F0B
S214000100920902401AB93F3001431000D967010036
S21400011002000300804681468246834684468EF36C
S21400012000887447041C0040F0B587B00593294B3F
S2140001300290039104929A6802999E69186BDD6991
S2140001401C6C514021405140049A0091724022405C
S2140001505640059A4240224042400192002210003A
S214000160012787403C4205D08700BC460F276146E2
S2140001708F403A4301300828F2D103986840024085
S214000180022055401A7882431A700322586810429B
S214000190FCD1022258681042FCD1009999609E61F9
S2140001A001991963DD6119780A431A7003225868A9
S2140001B010400028FBD107B0010002000300804673
S2140001C08146824683468446F0BC02BC864681F35E
S2140001D000880C47002A004010B5084B98470020BE
S2140001E0010002000300804681468246834684461C
S2140001F010BC01BC864680F300880447350A000020
S21400020010B540F26404C2F20004237863B940F2E9
S2140002100003C0F200032BB144F22000C0F28000BD
S21400022000E000BF0123237010BDC04640F200036B
S214000230C0F2000310B54BB140F2680144F2200052
S214000240C2F20001C0F2800000E000BF44F22000CD
S214000250C0F28000036803B910BD40F20003C0F28C
S2140002600003002BF8D09847F6E7C046FEE70000EC
S214000270104A114B10B59A4205D000230F490E4A7A
S2140002809A188A420ED300210D4B0E4A93420FD382
S2140002907F210D4B0D4A8B4393600D4B98470D4BBA
S2140002A09847FEE703481818006804331060E6E72E
S2140002B002C3EBE7281E00000000002064000020B8
S2140002C064000020C00000200000000000ED00E0F8
S2140002D0490D0000B10C00001FB514001438828BC5
S2140002E001AB1A80054A03915A801900044B029408
S2140002F0984700B9200004B010BDC0460080FFFF3C
S214000300CD0800001FB514001438828B01AB1A808C
S214000310054A03915A801900044B0294984700B985
S214000320200004B010BDC0460180FFFFCD080000CD
S21400033010B5044B0400984718B9034BA361034B50
S214000340636110BDBD08000005030000D90200006F
S21400035010B50368984710BD10B54368984710BDA0
S214000360F7B504000F0001922500083528000C4E52
S214000370B0470028F8D00024395D2800094B98477C
S2140003802800B0470028FBD0019B01349C42F3D3E1
S2140003902800054B98470028FAD02000FEBDC0462E
S2140003A09D0800008D080000A7080000F7B50700AC
S2140003B00E00002401923D0008352800064B9847A1
S2140003C00028F8D0054B28009847019B305501348B
S2140003D09C42F0D32000FEBDB10800009508000046
S2140003E010B5054B04000830984718B9034B6360F6
S2140003F0034B236010BDC04665080000AD03000037
S2140004006103000010B50830014B9847002010BD6E
S21400041075080000044B0200196809B90349196001
S214000420186882181A60704780000020C0060020F6
S21400043001204042704742F2000300204B607047A4
S214000440012070470020704710B5094B00205A68FD
S2140004505A60084B9847084B9847084B9847084BF4
S2140004609847084B98471F20074B984710BDC04633
S21400047000500041ED040000B5040000CD0400006B
S214000480A9040000E90400008D040000C30706D597
S214000490034A044B1A627D2259681142FCD1704708
S2140004A005010100001C00400122014B1A71704733
S2140004B00008004041F60071034BDA690A40DA6131
S2140004C000221A747047C046001400400222054BF2
S2140004D01A760E3219691142FCD080211A7E0A4320
S2140004E01A76704700100040704700000321084B42
S2140004F09A780A40904209D0FF229A719A7808406A
S2140005008A43104398709A79002AFCD07047C046F8
S21400051000040040C3691942FCD17047C369194200
S214000520FCD17047022210B5036803219343036091
S214000530014B984710BDC04615050000022210B5B5
S2140005400368032193430360014B984710BDC046E0
S2140005501D0500007FB50C4B0100180001AA70C8ED
S21400056070C2019A8A420AD05A688A4209D09B68A9
S21400057000208B4201D10230C0B204B070BD002012
S214000580FAE70120F8E7C0461C1D000010B5034B33
S21400059098470138431E9841404210BD550500005B
S2140005A0C02310B542689B02134343600421014BED
S2140005B0984710BD15050000F7B5036805000091C3
S2140005C0019304215A4B140098470121009E6B8B1F
S2140005D00E409BB2564F0222002E00D169E0134215
S2140005E00FD041F200020B405E425E4129766088E1
S2140005F0053E0243628062884E48024062803000B8
S214000600FEBD04273B401E00ABB16368002B04DD33
S21400061041F2000362881343638063881BB2002B99
S21400062002DA2800444B98476388424A13406380A6
S21400063002267642E3E740F2004362881A400092C0
S214000640D2B1062223883900DB0913400093280024
S214000650374B984744F200026B6A39001A40F12380
S2140006601343009A280013436B62314B9847638804
S214000670324A13406380C2E766684EB963881BB28D
S214000680002B02DA28002C4B98476388294AF0E7AB
S214000690A36839001A782B0028331A702800244BD8
S2140006A09847A3680133A3606368013B6360002634
S2140006B0A5E700981042A2D06268AAB35B0733D4BD
S2140006C0019B013ADE0E0E4062604AB966B980238D
S2140006D06A68DB0213436B6004212800B84703E016
S2140006E0012A01D1002EF2D1636883B96388114EC6
S2140006F01BB2002B08DA6B68280033406B600421BD
S214000700B84728000C4B9847638833406380A66838
S2140007100421731CA3602800B8472B0028331B78DD
S214000720337002232B76C2E702232B7680E7C0467F
S21400073015050000FFFEFFFFA1050000FFFBFFFF01
S214000740F7B50C000090264B08009847E369C7B23F
S214000750244EDB071BD418237B43234A02259B1811
S2140007601A691C2303211A4020000192B04723680F
S2140007702B4205D020001D4B984729002000B0478B
S2140007800123019A0321134323602000B047182554
S2140007907D4320000121B047134B2000ED182F6940
S2140007A003212760B0476B69200063600421B047CF
S2140007B0AB69BF01E360009BB90F9981676A0C4A79
S2140007C020003A4001278F42BF417F42BF031743B4
S2140007D067620421B047EB8B009A0020D381FEBDF0
S2140007E08D050000150500001C1D000025050000F5
S2140007F0FFBFFFFF70B5C3690400154DDB0710D4BB
S21400080002260321A8472368334205D02000114B57
S214000810984731002000A8470523032123602000C5
S214000820A84720000121A8470B4B20002360032186
S214000830A847C0239B02636020000F21A847002022
S214000840064BA360064BA381A0733034207070BDA6
S2140008501D0500003D050000040031400200700048
S2140008602BF6FFFF10B5024B01600800984710BD3D
S214000870F5070000022310B5006803210268134341
S2140008800360014B984710BD1D050000036889B240
S214000890198570470368188DC0B270470368187EC4
S2140008A00123184070470368187E8007C00F704702
S2140008B00368187E4007C00F7047000010B5024B53
S2140008C00161984710BDC0464107000040F2001382
S2140008D0F0B585B001914288040007691A4200D03D
S2140008E07DE04A881A434A80020061C961C27A687C
S2140008F0042113437B603800414EB0472569626887
S2140009002B68012A4BD1DB0E134248D080236A683D
S214000910DB0213436B6004212800B04740F200431B
S2140009202288510002911A423DD06288D20702D531
S21400093062881343638004212800B04740F2FE73A8
S21400094002996A6A19400B0044F20001114048F20D
S21400095000020A4313436B6228000421B047802339
S214000960032220695B02017E013BC9B273BB2800EB
S2140009702200244DA84760BB40F20016638833422D
S2140009802BD0802322695B02117E013BC9B243B3A0
S21400099003200142F8D022003800A847EEE76B6833
S2140009A0194A1340B6E7638804219BB228000393D4
S2140009B0B047FF230299039819400B00012101401C
S2140009C00B4344F200016A6A0A40C3E71142CAD0E8
S2140009D0CDE763880D4A1340638005B0F0BD06205E
S2140009E00CE0019B5B881BB2002B02DA3800084B38
S2140009F0984705206388054A134063804042ECE729
S214000A0015050000B9050000FFFFFBFFFFFEFFFF16
S214000A10A105000070B50500034C0448A047290056
S214000A200348A04770BDC046A90D0000401D000049
S214000A30481D000070B50500034C0448A047290077
S214000A400348A04770BDC046A90D00004B1D00001E
S214000A50481D000010B50B0028B918001100034B04
S214000A609847002801DA0120404210BDBD0A000068
S214000A70013810B50C00022805D811002000034BE1
S214000A809847002801DA0120404210BDDD0A000028
S214000A9070B50600064D074C2B6800219868A047E5
S214000AA02B6800215868A047034B1E6070BDC046E7
S214000AB000000020D90D000084000020054B10B572
S214000AC01B68040018001BB18AB2034B210098472C
S214000AD010BDC0468400002059030000054B10B529
S214000AE01B68040018001BB18AB2034B210098470C
S214000AF010BDC046840000205103000010B5084B0E
S214000B0098478022074B1205DA6640F280210022C1
S214000B10054B5A5004315A50044B984710BDC046F6
S214000B20950C00000032004000E100E0F50C0000EB
S214000B3070B51F244209C0B20440FF234D1C09D1E2
S214000B401A40D201144BA218D218137802318B43E4
S214000B50137070BD01251340104ADB019B181E1947
S214000B6040363278AA432A4332706208284209D0B7
S214000B700F209A1830321378090103401943C9B27E
S214000B801170E6E70F209B1830331A780140824335
S214000B9011431970DDE7C046403200400032004085
S214000BA010B50449044C1820A04704491920A04752
S214000BB010BDC04602001800310B000002001900EC
S214000BC0064B40211A00AC3211604322A8331A604B
S214000BD00223034AD1690B43D3617047001C0040CF
S214000BE00008004010B5054B984700220449054B05
S214000BF005489847054B984710BDC046C10B0000F6
S214000C0000040042E103000090000020A10B000059
S214000C1070B5094C0426220050321378074DB343B2
S214000C201370513406491020A84723780549B3436A
S214000C3023701120A84770BD00320040310B000021
S214000C400200100002001100064B40211A00B032CC
S214000C5011604222A8331A600423034AD1690B4369
S214000C60D3617047001C00400008004010B5044BDC
S214000C7098470449044B05489847054B984710BDCC
S214000C80490C000000080042310300009C000020D0
S214000C90110C000010B5034B9847034B9847034BC5
S214000CA0984710BD49040000E50B00006D0C0000DD
S214000CB010B50C4B98470C4C0C48A0470C48A04766
S214000CC048F200031B6883F3888848F204031C6814
S214000CD064086400200021002200230000F01AF8B7
S214000CE0FEE7C046FD0A0000150A0000531D00007E
S214000CF0581D000010B5044C044B200098472000F7
S214000D00034B984710BDC046900000200504000025
S214000D10910A0000E0B545464E465746E0B45D46AB
S214000D2020B4254626462746A046A146A246A34608
S214000D30A44684F30088A44720BCAB46E0BCBA4671
S214000D40B146A846E0BD000070B500250E4B0F4C1E
S214000D50E41AA410A54209D1002501F055F80C4C60
S214000D600C4BE41AA410A54207D170BD064AAB008E
S214000D709B181B6898470135ECE7064AAB009B18A2
S214000D801B6898470135EEE7141E0000141E00008D
S214000D90181E0000141E000003008218934200D1A3
S214000DA0704719700133F9E70FB40A4B13B51C6886
S214000DB024B1A36913B9200000F078FA05AB049AB1
S214000DC0A1682000019300F041FC16BC08BC04B0EA
S214000DD01847C046000000204A424A4110B552005B
S214000DE040F2004300F002F810BD0000F0B51D0010
S214000DF04D4B85B01E6804000F00009226B1B36903
S214000E0013B9300000F052FA484B9C424FD1746838
S214000E10009B022B05D0012B00D982E0002D00DAC2
S214000E207FE02100300000F0D5F9616B41B123006E
S214000E304433994202D0300000F038FB002363634D
S214000E400023A3616360A3891B0603D521693000D4
S214000E5000F02CFBA389364A1340A381009B022B8B
S214000E6059D003AB02AA2100300000F0ADFAA389E6
S214000E701843A0812DBB029D280000F00DFB0195B4
S214000E800700002841D1029B0193AB4237D10120D5
S214000E9040420223A2891343A3810023A3602300B8
S214000EA04733236023610123636105B0F0BD214B06
S214000EB09C4201D1B468ABE71F4B9C42A8D1F468B2
S214000EC0A6E7002FD8D0B36913B9300000F0EEF9CA
S214000ED0009B012B03D1A389009A1A43A281082004
S214000EE0A3892760184027616561C0B101201840BA
S214000EF0002390B16D42A360A5611800D5E7019864
S214000F0000F0CAFA07000028C1D08023A289019DFC
S214000F101343A381D7E70020BBE7A560C5E7A06021
S214000F20C3E701204042C0E700000020941D0000F7
S214000F305CF3FFFFB41D0000741D0000F8B505004B
S214000F400E00140018B183690BB900F0AFF9214BFD
S214000F509C422AD16C68A369A360A3891B072ED57F
S214000F60236963B323682269F7B2981A6369F6B2F5
S214000F70984204DB2100280000F02CF928BBA36867
S214000F800130013BA36023685A1C22601F7063690E
S214000F90984204D0A389DB0719D50A2E17D1210061
S214000FA0280000F017F990B10FE00B4B9C4201D1DE
S214000FB0AC68D0E7094B9C42CDD1EC68CBE721006A
S214000FC0280000F00DF80028CCD00126764230002C
S214000FD0F8BDC046941D0000B41D0000741D00003E
S214000FE0344B70B51D6806000C0025B1AB6913B90B
S214000FF0280000F05BF9304B9C420FD16C680C2344
S214001000E25E93B219072CD4D90611D40923012025
S214001010336037331343A381404270BD274B9C4255
S21400102001D1AC68EBE7264B9C42E8D1EC68E6E7DA
S2140010305B0712D5616B41B123004433994202D05D
S214001040300000F033FA002363632422A38993431D
S214001050A38100236360236923600823A2891343C6
S214001060A38123695BB940F2802140F20022A38964
S2140010700B40934203D02100300000F0CDF901234D
S214001080A28913408BB10023A36063695B42A3610E
S21400109023690020002BC0D10C23E25E1306BCD5CA
S2140010A040231343A3810138B7E7920700D463694E
S2140010B0A360EDE700000020941D0000B41D0000B2
S2140010C0741D0000F7B58A8905000C0013075ED46E
S2140010D04B68002B04DC0B6C002B01DC0020FEBDF3
S2140010E0E76A002FFAD000232E682B6041F2000337
S2140010F01A4092B3606DA3895B0705D56368C01A72
S214001100636B0BB1236CC01A0200216A002328000F
S214001110E76AB847A189431C06D12B681D2B30D837
S2140011202B4ADA40D3072CD500236360236923605B
S214001130CB0404D5431C01D12B6803B96065616BF1
S2140011402E600029CAD023004433994202D02800DA
S21400115000F0ACF900206063C1E70123216A280093
S214001160B847431CC7D12B68002BC4D01D2B01D019
S214001170162B01D12E60B1E74023A2891343A38129
S214001180ADE740230B430120A3814042A7E70F6948
S214001190002FA3D00B680F60DB1B01930023920780
S2140011A000D14B69A360019B002B00DC96E7019BF6
S2140011B03A00216A2800A66AB047002803DC4023CC
S2140011C0A2891343DFE7019B3F181B1A0193EAE746
S2140011D0010040200B6970B505000C000BB900201B
S2140011E070BD18B183690BB900F060F80B4B9C42D8
S2140011F009D16C680C22A35E002BF0D021002800D9
S214001200FFF760FFECE7064B9C4201D1AC68F1E7C4
S214001210044B9C42EED1EC68ECE7C046941D0000FF
S214001220B41D0000741D000010B5024900F0ACF8B3
S21400123010BDC046D5110000002310B504000360A1
S2140012404360836081814366C28103614361836139
S214001250190008225C30FFF79FFD054B246263628D
S214001260044BA362044BE362044B236310BDC046E9
S214001270991B0000C11B0000F91B0000251C000084
S21400128070B568254A1E55430E002900743100F0DB
S21400129057F9040040B100212A00016046600C3076
S2140012A0A0606832FFF778FD200070BD836913B533
S2140012B0040043BB8364C3640365134B134A1B6873
S2140012C082620193984201D101238361200000F0DD
S2140012D01FF86060200000F01BF8A060200000F0FF
S2140012E017F80022E06004216068FFF7A5FF0122DE
S2140012F00921A068FFF7A0FF02221221E068FFF78D
S2140013009BFF0123A36113BD701D0000291200007E
S214001310F8B51C4B07001E68B36913B93000FFF719
S214001320C5FF4836B4687368013B03D5336833B1EC
S2140013303668F7E70C22A55E6DB16834F4E7042141
S2140013403800FFF79DFF30600028F1D10C23040021
S2140013503B602000F8BD012320005B42E38102339E
S214001360A38165662560A560656025616561A561E8
S214001370082229005C30FFF70FFD6563A563A564AE
S214001380E564E6E7701D0000F7B5040007000026D8
S214001390019148340CB93000FEBD6368A56800931F
S2140013A0009B013B009301D52468F3E7AB89012B32
S2140013B008D90E22AB5E013304D029003800019B09
S2140013C0984706436835EBE770B50E001D000E2300
S2140013D0C95E90B01400002907DA00232B60B38999
S2140013E01B0611D440F200430FE001AA00F042FCB5
S2140013F00028F2DB4FF20002029B1340054A9B18BE
S2140014005A4253412B60EDE740230020236010B082
S21400141070BDC04600E0FFFFF7B502268B890500C9
S2140014200C00334206D02300473323602361012398
S2140014306361F7BD01AB6A46FFF7C6FF0099070078
S214001440280000F07DF840B90C22A35E9A05F0D47F
S214001450032293431E43A681E5E70E4BAB6280232F
S214001460A28920601343A381009B20616361019BD6
S21400147063B10E23E15E280000F00EFC30B10322BB
S214001480A38993431A0001231343A381A0893843F9
S214001490A081CEE72912000010B5034B01001868A2
S2140014A000F04EF810BDC0460000002070B50500E4
S2140014B081B10C1F2368002B00DAE418280000F026
S2140014C018FC1E4A136811002BB9636014602800CC
S2140014D000F010FC70BDA3420BD92268A01883420E
S2140014E003D118685B688218226063600C60EEE7C0
S2140014F013005A680AB1A242FAD919685818A042CD
S2140015000BD120680918581819608242DFD110687C
S2140015105268411819605A60D9E7A04202D90C23D4
S2140015202B60D4E721686018824203D110685268A5
S2140015304118216062605C60C9E7C04688000020F0
S214001540032370B5CD1C9D43083506000C2D1CD218
S2140015500C25A9421BD8300000F0CBFB254A1468A6
S2140015602100C1B9244C23681BB9300000F004FBED
S21400157020602900300000F0FFFA431C2DD10C2318
S2140015803000336000F0B6FB03E0002DE1DA0C23F8
S2140015903360002070BD0B685B1B1BD40B2B03D97C
S2140015A00B60CC18256003E08C420FD16368136093
S2140015B0300000F09FFB200007220B30231D9043D5
S2140015C0C31A002BE6D05A42E250E3E74B6863604A
S2140015D00C00EDE70C004968C3E70323C41C9C43DA
S2140015E0A042DFD0211A300000F0C6FA431CD9D141
S2140015F0C5E7C046880000208C000020936810B520
S214001600013B9360002B05DA9469A34208DBCBB25A
S2140016100A2B05D01368581C10601970C8B210BD8C
S214001620FFF78CFCFBE7F8B506000F001400D51892
S214001630AC4201D1002007E021783A003000FFF7E5
S214001640DDFF0134431CF3D1F8BD0000F0B59FB0B8
S21400165002900F001600059320B1836904930BB91E
S214001660FFF724FE7E4B9F425BD1029B5F68BB89DF
S2140016701B0762D53B69002B5FD0002306AD6B616C
S21400168020336B761033AB7634002378002B5ED194
S214001690A31B04936BB1A31B320039000298FFF71B
S2140016A0C2FF431C00D1CBE06A69049B94466344A6
S2140016B06B612378002B00D1C2E001220023524246
S2140016C06A6002A95432521801342B60EB60AB609A
S2140016D01370AB65634E05222178300000F0FEFAE9
S2140016E0621C002837D12968CB0604D5532302AEE6
S2140016F020309B1918700B0704D553232B2002AEFD
S2140017009B19187023782A2B2DD000210A20012639
S214001710099B2278303A092A69D900292BD00993E7
S21400172029E0514B9F4202D1029B9F689FE74F4B97
S2140017309F429CD1029BDF6899E739000298FFF729
S2140017404FFC002899D0012040421FB0F0BD252B49
S2140017509ED0013499E70123801B8340296814003A
S2140017600B432B60B6E7059B181D1B680590002BE6
S21400177037DB0993140023782E2B0BD16378621C79
S2140017802A2B3CD1059B02341A1D1B680592002BA0
S21400179032DB0793364E21780322300000F09EFAA3
S2140017A030B14023801B83402A68013413432B60EA
S2140017B0217806222F48661C297600F08FFA00282A
S2140017C044D02D4B83BB2968059B0722C90529D524
S2140017D09B189343083305936B69039A9B186B61B8
S2140017E052E75B42EB6002230B432B60C2E74343A6
S2140017F001349B1831008CE701235B42C9E70023C4
S21400180014000A201A0001266B6021783039092955
S21400181003D9002BBED00792BCE7424301345218CE
S2140018203300F2E70733D4E705AB00933A00134BD7
S2140018302900029800E000BF0390039B0133CBD140
S214001840BB895B0600D57EE70B987EE705AB009369
S2140018503A000A4B2900029800F07EF8ECE7C046F2
S214001860941D0000D41D0000B41D0000741D00006F
S214001870DA1D0000DE1D0000000000002716000034
S214001880F7B5150001938A680B6900900C00934227
S21400189000DA130022002B60433212780AB10133BB
S2140018A02B6023689B0602D52B6802332B60062725
S2140018B023681F403FB3230043331B785A1E9341CF
S2140018C02268920630D42200019943320098089E7E
S2140018D0B047431C25D0062320682A68E1680340E9
S2140018E00025042B03D18D1AEB43DB171D40A3689C
S2140018F02269934201DD9B1AED180027BD4220D1D4
S214001900002010E00137E3682A689B1A9F42D2DA6B
S21400191022000123193201990098089EB047431C03
S214001920F0D101204042FEBD3020E118433108705E
S21400193021005A1C45310978A2184332023311702F
S214001940C1E7220001231A3201990098089EB04789
S214001950431CE6D00137D1E7F0B50E0089B00593F9
S214001960039004920A7E0C000E9B43366E2A00D12A
S2140019708BE017D8632A2CD008D8002A00D195E02F
S214001980582A65D0250042352A7029E0642A01D0FD
S214001990692AF7D121681A68080623D5111D19602F
S2140019A0136825E0732A00D184E008D86F2A27D070
S2140019B0702AE7D1202209680A43226003E0752ACC
S2140019C01ED0782ADED1220078214532117068496F
S2140019D041E00D001A684235111D196013682B701E
S2140019E0012374E04906D9D5111D19600023D35E82
S2140019F0002B02DA2D225B4232705E490A2215E085
S214001A0020681968050603D5081D18600B6805E0F0
S214001A104006F9D5081D18600B689BB255496F2A19
S214001A2031D1673A20000025433005706068A06019
S214001A30002872DB04252768AF432760002B6ED191
S214001A403500002877D025000B7842352B7072E0E1
S214001A5045310A7047491A682068151D1D601368CD
S214001A6005060CD5C20702D520221043206010229E
S214001A70002BD7D12020256885432560D2E7450670
S214001A80F0D59BB2EEE70A22CCE709681A6808068A
S214001A9005D5111D1960136862691A6006E04906CB
S214001AA0F7D5111D19601368A28A1A800023350025
S214001AB023614EE01A68111D1960156800216268DE
S214001AC0280000F00BF908B1401B606063682361D2
S214001AD0002333703DE023692A0004990398059D8E
S214001AE0A847431C3FD0236800259B070FD4079BBD
S214001AF0E068984239DA180037E0220001231932EC
S214001B0004990398059EB047431C2CD00135E36822
S214001B10079A9B1A9D42F0DBE9E7002B93D035002D
S214001B20B3FBF2F017004743DB1BCB5C013D2B7089
S214001B3003000028F4D1082A09D12368DB0706D55C
S214001B4063682269934202DC3023013D2B70761BCA
S214001B502661059B07AA00932100049B0398FFF7C4
S214001B608FFE431CB7D10120404209B0F0BDC046ED
S214001B70F61D0000E51D0000002370B5054C0500AD
S214001B8008002360FEF746FC431C02D1236803B11D
S214001B902B6070BDBC00002070B50C000E25495FA0
S214001BA000F0AAF8002803DB636D1B18636570BDA0
S214001BB0A389024A1340A381F9E7C046FFEFFFFF5F
S214001BC0F8B51F008B8905000C001600DB0505D54F
S214001BD00E23C95E0022022300F06EF8A389054A90
S214001BE028001340A38132000E23E15E3B0000F084
S214001BF01FF8F8BDFFEFFFFF70B50C000E25495F1C
S214001C0000F05AF8A389421C03D1054A1340A38169
S214001C1070BD41F200021343A3816065F8E7C04639
S214001C20FFEFFFFF10B50E23C95E00F013F810BDDE
S214001C3070B50500080011000022054C22601A004D
S214001C40FEF716FF431C02D1236803B12B6070BD5C
S214001C50BC000020002370B5054C0500080023607A
S214001C60FEF7E6FB431C02D1236803B12B6070BD70
S214001C70BC000020002370B5064C050008001100CB
S214001C802360FEF7D8FB431C02D1236803B12B6008
S214001C9070BDC046BC000020002370B5054C050092
S214001CA008002360FEF7CCFB431C02D1236803B177
S214001CB02B6070BDBC00002070B505000800110048
S214001CC00022054C22601A00FEF7BCFB431C02D122
S214001CD0236803B12B6070BDBC000020C9B2821817
S214001CE0904201D10020704703788B42FBD0013030
S214001CF0F6E770477047000070B505000800110051
S214001D000022054C22601A00FEF7A4FE431C02D1F6
S214001D10236803B12B6070BDBC00002000040042A5
S214001D2000080042000C00420100000014002000E1
S214001D30000100000E0F00000000D70000093D0063
S214001D401B5B303B33326D002573001B5B303B332F
S214001D50316D001B5B324A0053656375726520481F
S214001D60656C6C6F20776F726C6420210D0A000022
S214001D70040000200000000000000000000000003A
S214001D80000000000000000000000000000000004E
S214001D90000000000000000000000000000000003E
S214001DA0000000000000000000000000000000002E
S214001DB0000000000000000000000000000000001E
S214001DC0000000000000000000000000000000000E
S214001DD000000000232D302B2000686C4C00656648
S214001DE06745464700303132333435363738394167
S214001DF0424344454600303132333435363738397D
S214001E006162636465660000F8B5C046F8BC08BC4D
S214001E109E4670472D020000F8B5C046F8BC08BCC8
S20C001E209E4670470102000017
S214001E280400002000000000941D0000B41D0000FF
S214001E38741D000000000000000000000000000004
S214001E480000000000000000000000000000000085
S214001E580000000000000000000000000000000075
S214001E680000000000000000000000000000000065
S214001E780000000000000000000000000000000055
S208001E880000000051
S214007C007FE97FE9F8F790BA7FE97FE9F8F772BA7B
S214007C107FE97FE9F8F7E0BA000000000000000006
S2148040003F438FB0BB1800008020084001000000AE
S214804010000000000000000000000000000000001B
S804000000FB
