:108000002026002065810000618100006181000060
:108010000000000000000000000000000000000060
:10802000000000000000000000000000618100006E
:10803000000000000000000061810000618100007C
:1080400061810000618100006181000061810000A8
:108050006181000061810000618100006181000098
:108060006181000061810000618100006181000088
:108070006181000061810000618100006181000078
:108080006181000061810000618100006181000068
:108090006181000061810000618100006181000058
:1080A0006181000061810000618100006181000048
:1080B0006181000061810000618100006181000038
:1080C0006181000061810000618100006181000028
:1080D0006181000061810000618100006181000018
:1080E0006181000061810000618100006181000008
:1080F0006181000010B542F20004C2F2000423784E
:1081000063B940F20003C0F200032BB148F2B4207F
:10811000C0F2000000E000BF0123237010BDC04684
:1081200040F20003C0F2000310B54BB142F204016B
:1081300048F2B420C2F20001C0F2000000E000BF2B
:1081400048F2B420C0F20000036803B910BD40F249
:108150000003C0F20003002BF8D09847F6E7C046B2
:10816000FEE70000104A114B10B59A4205D00023DB
:108170000F490E4A9A188A420ED300210D4B0E4A1F
:1081800093420FD37F210D4B0D4A8B4393600D4BD0
:1081900098470D4B9847FEE70348181800680433CA
:1081A0001060E6E702C3EBE7B48200000020002085
:1081B00000200020002000201C2000200080000063
:1081C00000ED00E0298200000D82000010B5014B97
:1081D000984710BDD98100008022C02304211205D8
:1081E000DB055A60064B074A9A62074A9A625B337C
:1081F0001A788A431A701A7803398A431A707047BA
:108200000030004000000240000802C0034B10B5DF
:1082100098470348034B9847FEE7C046CD810000CE
:1082200078820000117C000070B500250E4B0F4CC9
:10823000E41AA410A54209D1002500F02BF80C4C3B
:108240000C4BE41AA410A54207D170BD064AAB003E
:108250009B181B6898470135ECE7064AAB009B1852
:108260001B6898470135EEE7A0820000A08200005D
:10827000A4820000A08200004E6F6E2D53656375CE
:1082800072652048656C6C6F20576F726C6420219A
:108290000D0A0000F8B5C046F8BC08BC9E46704701
:1082A00021810000F8B5C046F8BC08BC9E46704766
:0482B000F580000055
:040000030000800079
:00000001FF
